{
  "_format": "hh-sol-artifact-1",
  "contractName": "Transactions",
  "sourceName": "contracts/Transactions.sol",
  "abi": [
    {
      "anonymous": false,
      "inputs": [
        {
          "indexed": false,
          "internalType": "address",
          "name": "from",
          "type": "address"
        },
        {
          "indexed": false,
          "internalType": "address",
          "name": "receiver",
          "type": "address"
        },
        {
          "indexed": false,
          "internalType": "uint256",
          "name": "amount",
          "type": "uint256"
        },
        {
          "indexed": false,
          "internalType": "string",
          "name": "message",
          "type": "string"
        },
        {
          "indexed": false,
          "internalType": "uint256",
          "name": "timeStamp",
          "type": "uint256"
        }
      ],
      "name": "Transfer",
      "type": "event"
    },
    {
      "inputs": [],
      "name": "getAllTransactions",
      "outputs": [
        {
          "components": [
            {
              "internalType": "address",
              "name": "sender",
              "type": "address"
            },
            {
              "internalType": "address",
              "name": "receiver",
              "type": "address"
            },
            {
              "internalType": "uint256",
              "name": "amount",
              "type": "uint256"
            },
            {
              "internalType": "string",
              "name": "message",
              "type": "string"
            },
            {
              "internalType": "uint256",
              "name": "timeStamp",
              "type": "uint256"
            }
          ],
          "internalType": "struct Transactions.TransferStruct[]",
          "name": "",
          "type": "tuple[]"
        }
      ],
      "stateMutability": "view",
      "type": "function"
    },
    {
      "inputs": [
        {
          "internalType": "address payable",
          "name": "_receiver",
          "type": "address"
        },
        {
          "internalType": "uint256",
          "name": "_amount",
          "type": "uint256"
        },
        {
          "internalType": "string",
          "name": "_message",
          "type": "string"
        }
      ],
      "name": "send",
      "outputs": [],
      "stateMutability": "payable",
      "type": "function"
    },
    {
      "inputs": [
        {
          "internalType": "address",
          "name": "",
          "type": "address"
        }
      ],
      "name": "transactionCount",
      "outputs": [
        {
          "internalType": "uint256",
          "name": "",
          "type": "uint256"
        }
      ],
      "stateMutability": "view",
      "type": "function"
    },
    {
      "inputs": [
        {
          "internalType": "uint256",
          "name": "",
          "type": "uint256"
        }
      ],
      "name": "transactions",
      "outputs": [
        {
          "internalType": "address",
          "name": "sender",
          "type": "address"
        },
        {
          "internalType": "address",
          "name": "receiver",
          "type": "address"
        },
        {
          "internalType": "uint256",
          "name": "amount",
          "type": "uint256"
        },
        {
          "internalType": "string",
          "name": "message",
          "type": "string"
        },
        {
          "internalType": "uint256",
          "name": "timeStamp",
          "type": "uint256"
        }
      ],
      "stateMutability": "view",
      "type": "function"
    }
  ],
  "bytecode": "0x608060405234801561001057600080fd5b50610fb1806100206000396000f3fe60806040526004361061003f5760003560e01c806327506f531461004457806399be33751461006f5780639ace38c2146100ac578063f49bb76b146100ed575b600080fd5b34801561005057600080fd5b50610059610109565b60405161006691906107d0565b60405180910390f35b34801561007b57600080fd5b5061009660048036038101906100919190610832565b6102ba565b6040516100a3919061086e565b60405180910390f35b3480156100b857600080fd5b506100d360048036038101906100ce91906108b5565b6102d2565b6040516100e495949392919061093b565b60405180910390f35b61010760048036038101906101029190610b08565b6103e0565b005b60606001805480602002602001604051908101604052809291908181526020016000905b828210156102b157838290600052602060002090600502016040518060a00160405290816000820160009054906101000a900473ffffffffffffffffffffffffffffffffffffffff1673ffffffffffffffffffffffffffffffffffffffff1673ffffffffffffffffffffffffffffffffffffffff1681526020016001820160009054906101000a900473ffffffffffffffffffffffffffffffffffffffff1673ffffffffffffffffffffffffffffffffffffffff1673ffffffffffffffffffffffffffffffffffffffff1681526020016002820154815260200160038201805461021690610ba6565b80601f016020809104026020016040519081016040528092919081815260200182805461024290610ba6565b801561028f5780601f106102645761010080835404028352916020019161028f565b820191906000526020600020905b81548152906001019060200180831161027257829003601f168201915b505050505081526020016004820154815250508152602001906001019061012d565b50505050905090565b60006020528060005260406000206000915090505481565b600181815481106102e257600080fd5b90600052602060002090600502016000915090508060000160009054906101000a900473ffffffffffffffffffffffffffffffffffffffff16908060010160009054906101000a900473ffffffffffffffffffffffffffffffffffffffff169080600201549080600301805461035790610ba6565b80601f016020809104026020016040519081016040528092919081815260200182805461038390610ba6565b80156103d05780601f106103a5576101008083540402835291602001916103d0565b820191906000526020600020905b8154815290600101906020018083116103b357829003601f168201915b5050505050908060040154905085565b6000803373ffffffffffffffffffffffffffffffffffffffff1673ffffffffffffffffffffffffffffffffffffffff1681526020019081526020016000206000815461042b90610c06565b9190508190555060016040518060a001604052803373ffffffffffffffffffffffffffffffffffffffff1681526020018573ffffffffffffffffffffffffffffffffffffffff16815260200184815260200183815260200142815250908060018154018082558091505060019003906000526020600020906005020160009091909190915060008201518160000160006101000a81548173ffffffffffffffffffffffffffffffffffffffff021916908373ffffffffffffffffffffffffffffffffffffffff16021790555060208201518160010160006101000a81548173ffffffffffffffffffffffffffffffffffffffff021916908373ffffffffffffffffffffffffffffffffffffffff16021790555060408201518160020155606082015181600301908161055d9190610dfa565b506080820151816004015550507fc4b32d7ff75a51e487f3cbb5d3202f2efecca1f4c2b987e0039c1d3220b48a8333848484426040516105a1959493929190610f21565b60405180910390a1505050565b600081519050919050565b600082825260208201905092915050565b6000819050602082019050919050565b600073ffffffffffffffffffffffffffffffffffffffff82169050919050565b6000610605826105da565b9050919050565b610615816105fa565b82525050565b6000819050919050565b61062e8161061b565b82525050565b600081519050919050565b600082825260208201905092915050565b60005b8381101561066e578082015181840152602081019050610653565b60008484015250505050565b6000601f19601f8301169050919050565b600061069682610634565b6106a0818561063f565b93506106b0818560208601610650565b6106b98161067a565b840191505092915050565b600060a0830160008301516106dc600086018261060c565b5060208301516106ef602086018261060c565b5060408301516107026040860182610625565b506060830151848203606086015261071a828261068b565b915050608083015161072f6080860182610625565b508091505092915050565b600061074683836106c4565b905092915050565b6000602082019050919050565b6000610766826105ae565b61077081856105b9565b935083602082028501610782856105ca565b8060005b858110156107be578484038952815161079f858261073a565b94506107aa8361074e565b925060208a01995050600181019050610786565b50829750879550505050505092915050565b600060208201905081810360008301526107ea818461075b565b905092915050565b6000604051905090565b600080fd5b600080fd5b61080f816105fa565b811461081a57600080fd5b50565b60008135905061082c81610806565b92915050565b600060208284031215610848576108476107fc565b5b60006108568482850161081d565b91505092915050565b6108688161061b565b82525050565b6000602082019050610883600083018461085f565b92915050565b6108928161061b565b811461089d57600080fd5b50565b6000813590506108af81610889565b92915050565b6000602082840312156108cb576108ca6107fc565b5b60006108d9848285016108a0565b91505092915050565b6108eb816105fa565b82525050565b600082825260208201905092915050565b600061090d82610634565b61091781856108f1565b9350610927818560208601610650565b6109308161067a565b840191505092915050565b600060a08201905061095060008301886108e2565b61095d60208301876108e2565b61096a604083018661085f565b818103606083015261097c8185610902565b905061098b608083018461085f565b9695505050505050565b60006109a0826105da565b9050919050565b6109b081610995565b81146109bb57600080fd5b50565b6000813590506109cd816109a7565b92915050565b600080fd5b600080fd5b7f4e487b7100000000000000000000000000000000000000000000000000000000600052604160045260246000fd5b610a158261067a565b810181811067ffffffffffffffff82111715610a3457610a336109dd565b5b80604052505050565b6000610a476107f2565b9050610a538282610a0c565b919050565b600067ffffffffffffffff821115610a7357610a726109dd565b5b610a7c8261067a565b9050602081019050919050565b82818337600083830152505050565b6000610aab610aa684610a58565b610a3d565b905082815260208101848484011115610ac757610ac66109d8565b5b610ad2848285610a89565b509392505050565b600082601f830112610aef57610aee6109d3565b5b8135610aff848260208601610a98565b91505092915050565b600080600060608486031215610b2157610b206107fc565b5b6000610b2f868287016109be565b9350506020610b40868287016108a0565b925050604084013567ffffffffffffffff811115610b6157610b60610801565b5b610b6d86828701610ada565b9150509250925092565b7f4e487b7100000000000000000000000000000000000000000000000000000000600052602260045260246000fd5b60006002820490506001821680610bbe57607f821691505b602082108103610bd157610bd0610b77565b5b50919050565b7f4e487b7100000000000000000000000000000000000000000000000000000000600052601160045260246000fd5b6000610c118261061b565b91507fffffffffffffffffffffffffffffffffffffffffffffffffffffffffffffffff8203610c4357610c42610bd7565b5b600182019050919050565b60008190508160005260206000209050919050565b60006020601f8301049050919050565b600082821b905092915050565b600060088302610cb07fffffffffffffffffffffffffffffffffffffffffffffffffffffffffffffffff82610c73565b610cba8683610c73565b95508019841693508086168417925050509392505050565b6000819050919050565b6000610cf7610cf2610ced8461061b565b610cd2565b61061b565b9050919050565b6000819050919050565b610d1183610cdc565b610d25610d1d82610cfe565b848454610c80565b825550505050565b600090565b610d3a610d2d565b610d45818484610d08565b505050565b5b81811015610d6957610d5e600082610d32565b600181019050610d4b565b5050565b601f821115610dae57610d7f81610c4e565b610d8884610c63565b81016020851015610d97578190505b610dab610da385610c63565b830182610d4a565b50505b505050565b600082821c905092915050565b6000610dd160001984600802610db3565b1980831691505092915050565b6000610dea8383610dc0565b9150826002028217905092915050565b610e0382610634565b67ffffffffffffffff811115610e1c57610e1b6109dd565b5b610e268254610ba6565b610e31828285610d6d565b600060209050601f831160018114610e645760008415610e52578287015190505b610e5c8582610dde565b865550610ec4565b601f198416610e7286610c4e565b60005b82811015610e9a57848901518255600182019150602085019450602081019050610e75565b86831015610eb75784890151610eb3601f891682610dc0565b8355505b6001600288020188555050505b505050505050565b6000610ee7610ee2610edd846105da565b610cd2565b6105da565b9050919050565b6000610ef982610ecc565b9050919050565b6000610f0b82610eee565b9050919050565b610f1b81610f00565b82525050565b600060a082019050610f3660008301886108e2565b610f436020830187610f12565b610f50604083018661085f565b8181036060830152610f628185610902565b9050610f71608083018461085f565b969550505050505056fea2646970667358221220d1ac9f917755e0f26405bf9a825005f9400d938534ed2d8e97bf906bc057ead264736f6c63430008110033",
  "linkReferences": {},
  "deployedLinkReferences": {}
}